:1000000023C200003EC200000C94E6213AC2000068
:1000100038C2000036C2000034C2000032C2000004
:1000200030C200002EC200000C9456270C942228E7
:100030000C94832026C2000024C2000022C20000CB
:1000400020C200001EC200001CC200001AC2000034
:1000500018C200000C940B2114C2000012C2000050
:1000600010C200000EC200000CC200000AC2000054
:1000700008C2000006C2000004C2000002C2000064
:1000800000C20000FEC10000FCC10000FAC1000077
:10009000F8C10000F6C10000F4C10000F2C1000088
:1000A000F0C10000EEC10000ECC1000029001E00FC
:1000B0001F0020002100220023002B0014001A0042
:1000C00008001500170000003900040016000700A2
:1000D00009000A000000E10035001D001B000600B9
:1000E00019000500E000E200E3002C000000000021
:1000F000215224002500260027002D002E002A0072
:100100001C0018000C00120013002F0030000B0020
:100110000D000E000F0033003400310011001000FC
:1001200036003700380052004C002C0021524A00A3
:10013000500051004F00280000003A003B003C00F6
:100140003D003E003F000000000000004B004A0060
:100150004D0000000000000000004E000000000004
:10016000000000000000000000000000000000008F
:10017000000000000000000000000000000040003F
:1001800041004200430044004500000000005200CE
:100190004C00000000000000000000005000510072
:1001A0004F00000000000000000000000000000000
:1001B000000000000000000000000000AA00A800ED
:1001C000A900000000000000000000002A2B280009
:1001D00000000000000000000000000000000029F6
:1001E000000000002C1E3420212224342627252E36
:1001F000362D3738271E1F2021222324252633336E
:10020000362E37381F0405060708090A0B0C0D0E99
:100210000F101112131415161718191A1B1C1D2F65
:100220003130232D350405060708090A0B0C0D0E85
:100230000F101112131415161718191A1B1C1D2F45
:100240003130354C000000000000000000000000CC
:10025000000000000000000000000000000000009E
:1002600000000000000000007E0F00D4FFFFFFC769
:10027000000000781803530070006C0069006E00E5
:1002800074006500720020003600350000002A036B
:100290004B006F006E007300740061006E0074000C
:1002A00069006E00200047006F006E006300680068
:1002B0006100720075006B0000000403090409026C
:1002C0005B00030100A0FA09040000010301010022
:1002D00009211101000122440007058103080001E2
:1002E000090401000203000000092111010001229C
:1002F00022000705820320000107050303200001F7
:10030000090402000103000000092111010001227B
:10031000B60007058403200001120100020000005E
:1003200008424B42420001010200010660FF0961E0
:10033000A1010962150026FF0095207508810209B8
:1003400063150026FF00952075089102C00501097C
:1003500002A10185020901A1000509190129081559
:100360000025019508750181020501093009311543
:1003700081257F95027508810609381581257F95AD
:100380000175088106050C0A38021581257F950143
:1003900075088106C0C005010980A1018503190106
:1003A0002AB700150126B700950175108100C00518
:1003B0000C0901A101850419012AA002150126A03A
:1003C00002950175108100C005010906A10185068D
:1003D000050719E029E71500250195087501810237
:1003E0000507190029EF1500250195F07501810217
:1003F00005081901290595057501910295017503F7
:100400009101C005010906A101050719E029E715B9
:100410000025019508750181029501750881010586
:1004200007190029FF150026FF00950675088100B1
:100430000508190129051500250195057501910289
:10044000950175039101C00011241FBECFEFDAE0C2
:10045000DEBFCDBF11E0A0E0B1E0E8EDF5E502C000
:1004600005900D92A03DB107D9F723E0A0EDB1E0D2
:1004700001C01D92A231B207E1F70E9482130C94D1
:10048000982ABECD8230B8F46A30A8F4473098F488
:10049000E42FF0E097E0699FE00DF11D112496E450
:1004A000899FE00DF11D1124EE0FFF1FE455FF4F52
:1004B00085919491089581E090E0089581E00895F8
:1004C000FDCF0895FBCF0895F9CF0895F7CF089594
:1004D000FDCF089508950895FDCF089508950895D6
:1004E000A6E0B0E0E6E7F2E00C94FC2949835A83E9
:1004F0009E833091D70189819A81311117C03E8145
:10050000332389F0222379F0EFD4182F682F8981C3
:100510009A81C9D469817A81812F0E94A10D269682
:10052000E3E00C94182AD0D4182FF4CFDDD46981DD
:100530007A81F3CFFC01262F408151816281738142
:1005400084819581CDCFCF93DF93D82FC92F61E0E0
:10055000F1DF6D2F7C2FB4DF882359F061E08D2F00
:100560009C2FE8DF6D2F7C2FADDF8170DF91CF9165
:10057000089580E0FACF0F931F93CF93DF93D82F86
:10058000C92F60E0D7DF8C016D2F7C2FA4DF6D2F8A
:100590007C2FC801A1DFDF91CF911F910F910895AA
:1005A0000F931F93CF93DF93D82FC92F61E0C2DF42
:1005B0008C016D2F7C2F88DF811106C080E0DF91D8
:1005C000CF911F910F9108956D2F7C2FC80180DF6F
:1005D0008823A1F36D2F7C2FC8010E943F1C882324
:1005E00069F36D2F7C2FC8010E946D1B882331F3A6
:1005F0006D2F7C2FC8010E94AE168823F9F26D2F53
:100600007C2FC8010E9484168823C1F26D2F7C2F95
:10061000C8010E94AF1B882389F26D2F7C2FC8016F
:100620000E94030F882351F26D2F7C2FC8010E9476
:10063000150F882319F26D2F7C2FC8010E942E0FF1
:10064000BECF91E001C0990F8A95EAF7892F88C340
:10065000CF93C82F81E00C2E01C0880F0A94EAF7CF
:100660000E94B40B8C2FEDDFCF91089581E00895A7
:10067000FDCF0895FBCF0895CF93C82F28D38C2F9B
:10068000F7DF8C2FF7DF2FEF84E39CE021508040D1
:100690009040E1F700C00000CF91089581E0ECDFC9
:1006A0000C942F2180E0E8DF0C94402117DF0E949A
:1006B0003B2017C018D013DF0C943F2081E0089531
:1006C0000895CF93DF93D82FF9DFC82F882311F037
:1006D0008D2FF6DF8C2FDF91CF9108950895F1CF04
:1006E000089580E0FCCF0E94CD1DF9CFCF930E94EA
:1006F000CD1DC82F8091D2018C1771F0C093D2010B
:100700000E94EE206093D3017093D4018093D501B1
:100710009093D6018C2FE3DFCF910895ADE0B0E048
:10072000E4E9F3E00C94FD29488759876A877B87C1
:100730008C879D87911102D71F8286E0FE01389633
:10074000DE01119601900D928A95E1F78D8181115C
:100750000CC029813A814B815C816D817E818F81C2
:100760003AD62D96E2E00C94192ACE010196EBDEE2
:100770008111EFCFF6CFFC018481813019F48081A3
:100780009181DAC30895662321F00E940B180C941E
:10079000D6180E945D18FBCFCF93C82F882389F00D
:1007A0008CEF8C0F813A78F48C2F0E94941E882352
:1007B00021F08C2F0E94371F4CD78C2F0E94201FB6
:1007C00048D7CF91089580E28C0F883040F4C770ED
:1007D00081E001C0880FCA95EAF791D6F1CF8BE589
:1007E0008C0F833038F42C2F2452330BC9010E9414
:1007F000161EE7CFE8E5EC0FEB3150F4F0E0EE0F1A
:10080000FF1FEC5BFE4F808191810E943E1ED9CF7D
:1008100083E38C0F8331A8F661E08C2FB4DFD1CF56
:10082000882351F19CEF980F913A18F40E94371FDA
:1008300010C790E2980F983048F4877091E001C09B
:10084000990F8A95EAF7892F60D6F2CF9BE5980F2A
:10085000933020F490E080E00C94161E98E5980FF9
:100860009B3120F490E080E00C943E1E93E3980FBF
:10087000933110F460E087CF08951F93CF93DF93F7
:10088000182FEB0189DF209731F4812FC9DFDF9129
:10089000CF911F9108958FE99FE00197F1F700C074
:1008A00000002197F0CF70E060E0893311F460E53B
:1008B00070E0E3CF882311F022D6CBC608958823B9
:1008C00011F023D6C6C60895B0E0A0E0EAE6F4E051
:1008D0000C94F5296C01D62FC72FFC0115810681D8
:1008E00002950F7002D6E82E8823E9F0E12E11233D
:1008F000D1F08C2F807F803461F080E28D0F8830C2
:10090000F0F08C2F807E803221F4D230C0F00023B2
:10091000B1F08091E60282FF12C082E0BED6E5D53A
:1009200091E0E82EE9268C2F82958F70A82EB12CAD
:100930008C3078F5F501E656F54D0C94E029E12C64
:10094000F2CF0C2F0F70C07F11F00295007F1123A2
:1009500081F0002349F080E28D0F883010F0D11132
:1009600005C0802FCCD575D68D2F42C0802FD8D50D
:10097000FACF8D2F55DF002361F080E28D0F883094
:1009800010F0D11103C0802FC0D502C0802FCED56A
:1009900060D688E0A81AB10894E0A916B10408F05E
:1009A00044C10E94CD1D9BDECDB7DEB7EAE00C94BA
:1009B000112AFC2FFF70FF2EC07FC03219F0F29475
:1009C00080EFF822DD2341F0D13081F1112309F4C9
:1009D00039C00023C9F0C8CF8091E60282FD10C063
:1009E000112341F0FF2019F08F2D89D532D680E0F8
:1009F000D3DECFCF80E014DFFF2059F28F2DC4CF9C
:100A0000112359F0011103C08F2D54DFC2CF0130E3
:100A100009F0BFCF8F2DA6D5BCCF0111BACF8F2D36
:100A20004EDF8F2DAAD58F2D8FD5B3CF112321F077
:100A3000063008F0AECFE8CF053008F0AACF8F2DF2
:100A40003EDFA7CF0023D9F3D93349F42FEF87EE48
:100A500093E0215080409040E1F700C000008D2FCE
:100A6000DFDE97CF8C2F86958695837069F0813075
:100A700009F08FCF8D2F9C2F9370111102C080E051
:100A800090E00E943E1E85CF8D2F9C2F93701111F8
:100A900002C080E090E00E94161E7BCF612F8D2F58
:100AA00072DE77CF8C2F837061F5111172CF4D2FCD
:100AB000429546954770440F440F8D2F8F70042E3A
:100AC00001C0880F0A94EAF72D2F2071D4FF07C0C8
:100AD0002FE030E001C0220F4A95EAF72095C69535
:100AE000C695C370822BC23041F0C33041F0C13093
:100AF00011F03CD14ECF36D14CCF3CD14ACF30D182
:100B000048CF8695112311F08C2F8170882309F42A
:100B100040CF4D2F429546954770440F440F8D2F7F
:100B20008F70042E01C0880F0A94EAF72D2F2071D0
:100B3000D4FF07C02FE030E001C0220F4A95EAF74A
:100B40002095C695C695C370822BC23041F0C33044
:100B500041F0C13011F049D11CCF43D11ACF49D156
:100B600018CF12D116CFCF70112321F08C2F1AD1AC
:100B70008D2F4BCF8D2FA3DE8C2F1ED10ACFD23FCE
:100B800039F160F4D03FB9F0D13F81F0112309F47D
:100B90003CC00111E9CE8C2F8F711EC0D33FF1F004
:100BA000D43FA1F78091E60282FD20C08C2F8F7187
:100BB000112319F311C0112339F0053008F0E9CEE3
:100BC0008C2F8F7104D1E5CE063008F0E2CEF8CF3D
:100BD0008C2F8F711111D1CFE5D0DBCE112321F0F5
:100BE0008C2F8F71D8D0D5CED4D0D3CE112329F06D
:100BF00063E08C2F8F713AD5CCCE81E04ED5023098
:100C000008F4C7CE82E049D5C4CE002359F0D933C9
:100C100009F025CFEFEFF7EE23E0E150F040204060
:100C2000E1F71BCF8C2F8F71A8CFEE2009F4BCCE3B
:100C300058D480FDB9CEF60115824DD4B3D0C6018B
:100C400017D049D4B9D0B0CE0F931F93CF93DF9371
:100C5000EC01688179818D817AD18C01CED07FD0F1
:100C6000B801CE0131DEDF91CF911F910F91089530
:100C7000CF93DF93EC018C81882381F0CE0190DC4F
:100C800081110FC032D4882349F08D81882331F03F
:100C90008091E60282FF02C082E0FFD4DF91CF9113
:100CA0000895CE01D1DFCE0166DCF8CF90E080E080
:100CB0000E94161E90E080E00E943E1E3FD4C9D4E0
:100CC0000E94EF180C94D6180E944E1FEFCF25D427
:100CD000FBCF282F92959F70963091F060F4925F31
:100CE0009F70923030F481E0203F81F030F4283E54
:100CF00030F080E008959A5FF3CF243FD1F7089554
:100D000081E0283EE0F3213FA1F7F9CF0895FC01EF
:100D10008481882321F0808191810ED1DACF80E017
:100D20000895A6E0B0E0E7E9F6E00C94FD292696E8
:100D3000E2E00C94192AA7E0B0E0E1EAF6E00C94B6
:100D4000FD292796E2E00C94192A0895FECF089514
:100D5000FDCF0895FADFFCDF8093F4010895089534
:100D6000F9CF08959091F401892BF4CF9091F4017B
:100D70008923F0CF9091F4018927ECCFE6CF089535
:100D8000FDCF0895E2CF0895FDDFFADF8093F301F0
:100D9000089580E0F9CF91E001C0990F8A95EAF7B4
:100DA000892FF2CF21E030E001C0220F8A95EAF7C7
:100DB0008091F301822BE8CF21E030E001C0220FC7
:100DC0008A95EAF720958091F3018223DDCF21E017
:100DD00030E001C0220F8A95EAF78091F301822763
:100DE000D3CF9091F301892BCFCF9091F301892339
:100DF000CBCF9091F3018927C7CF08959B016770EE
:100E000091E001C0990F6A95EAF763E0369527955E
:100E10006A95E1F7F901EE0FFF1FE20FF31FE40FF0
:100E2000F51F50E040E0682F70E08191DF011197DD
:100E30009B01042E02C0369527950A94E2F7217093
:100E400021952827292328272C934F5F5F4F433074
:100E5000510559F708959C01982F977083E03695B6
:100E600027958A95E1F7F901EE0FFF1FE20FF31FB7
:100E7000E60FF71F50E040E080E0219130E0092EBE
:100E800002C0369527950A94E2F721703327042E85
:100E900001C0220F0A94EAF7822B4F5F5F4F433065
:100EA000510559F70895282F862F9A3060F427307E
:100EB00050F4622F70E027E0929F600D711D1124A5
:100EC00048ED51E09BCF0895292F9A3058F4873090
:100ED00048F490E068ED71E037E0239F800D911DAC
:100EE0001124B9CF80E00895B0E0A0E0EAE7F7E090
:100EF0000C94F8297C010091F3018091F401082BF6
:100F0000C3E0D0E010E0DC2EC8010C2E02C09595A5
:100F100087950A94E2F780FD09C02197A0F7D12CAC
:100F20008D2DCDB7DEB7E7E00C94142AB7018C2FD6
:100F300012D6019791F3F4CFCF93DF93D82FC92F17
:100F4000D3DF6D2F7C2F07D6DF91CF9108951F93AC
:100F5000CF93DF93162FD72F9091D701992339F094
:100F6000862F972FE9DFDF91CF911F910895882376
:100F700069F0862F972FB8DFC82F682F812F9D2FFC
:100F800092DF612F7D2F8C2FE6D5EDCF862F972F07
:100F90009BDFC82FF6CFE1E0F0E0DF0102C0AA0F2F
:100FA000BB1F6A95E2F7BD01DF0102C0AA0FBB1F9C
:100FB0004A95E2F76A2B01C0EE0F2A95EAF7962FC1
:100FC0009823961302C08E2B0895E0958E230895E2
:100FD000242F462F682F8091F301DDDFD5CE1F939C
:100FE000CF93DF93E091F50117E08091F6018E1326
:100FF00004C0DF91CF911F910895CE2FD0E01E9FA6
:10100000F0011124E950FE4F20813181428153814A
:101010006481758186818FDEFE013196E770E5CFB0
:1010200020912F02309130024091310250913202D2
:101030006091330270913402809135027CCECF935F
:10104000DF9380913502807F09F04BC0809134029C
:10105000882309F446C0E091F5015091F601C09152
:101060003002D0912F02609131027091320247E03C
:101070005E17B9F18E2F90E0E49FF0011124E95042
:10108000FE4F2481222381F1489FF001499FF00DFA
:101090001124DF01A950BE4F11962C9111972C13EA
:1010A00023C02C912D1320C015962C91159721113A
:1010B0001BC012962D913C91261B370B283C310505
:1010C00098F4809135028F70806180933502E350EF
:1010D000FE4F80818F70806180838FE292E0C8DD57
:1010E0007EDFDF91CF910895FC013196E770C0CF8C
:1010F000982FE091F5014091F60157E0E41302C00A
:1011000080E008952E2F30E05E9FF0011124E95019
:10111000FE4F8181681306C08081981303C08581CA
:101120008111EFCFF9013196E770E8CFADE0B0E083
:10113000ECE9F8E00C94F3298C0186E0F801DE017B
:10114000189601900D928A95E1F7F8018481E58067
:101150009FE2A92E92E0B92E9091330291111AC00C
:101160008823A9F0EE2089F0C801D1DDF82E88236C
:1011700061F087E0F801D50101900D928A95E1F7C1
:10118000C501F9DA5CDF4CDF59C0C80171DDFF240D
:10119000F39454C0C080D18082809380F090340258
:1011A0002091310230913202A401421B530BFF20E7
:1011B00009F4CCC0483C510508F09CC0882309F4D0
:1011C0003DC09091300280913502282F207F09F098
:1011D00056C0D91214C090912F02C91210C0E1104C
:1011E00048C08F708061809335021ADF8FE292E0F1
:1011F0003FDD80913502F8018683F12C1FC0E1109C
:1012000038C06D2D8C2D74DF6D2D8C2D71DFE82E87
:101210008111F3CFC886D986888599858DDE292FDF
:1012200022952F70903478F49F702230A0F099238B
:10123000B1F0F8019681907F91F4FE2C8F2D2D96C0
:10124000ECE00C940F2A2A5F2F70223060F0C80166
:101250000FDDEF2CF2CF992311F0882371F3805E1C
:10126000883058F3F4CF803F40F3815F833028F318
:10127000EECF80913502816080933502BECFD912C6
:1012800012C090912F02C9120EC0E1100CC08683CB
:10129000C801EEDC87E0F801AFE2B2E001900D9208
:1012A0008A95E1F770CFC80132DD882309F46DCF4C
:1012B000EE2009F46ACF80913502803280F02091CF
:1012C0002F02309130023A8329839C828B82909145
:1012D00033029D831E828F83CE010196C9DC87E095
:1012E000F801AFE2B2E001900D928A95E1F7A7DE36
:1012F00097DE4DCF90913502292F207F89F4682DFC
:101300009B868A86A6017B859E2D0BDD8FE292E06F
:10131000AFDC87E0F50111928A95E9F781DE6DCFA8
:10132000882309F48BCF809130028D11BCCF80913E
:101330002F02C812B8CFE110B6CF9683C80198DC4F
:1013400087E0F50111928A95E9F778CF483C51057D
:10135000A8F5882309F41BCFFE2CEE2009F415CF45
:10136000809130028D111EC080912F02C8121AC0C8
:101370008091350280FD0DC0982F907F51F08683BB
:10138000903F09F485CF982F907F905F8F70892BC5
:101390007ECF87E0F801AFE2B2E001900D928A952E
:1013A000E1F74CCFC801B3DC811199CF80913502B0
:1013B000816080933502C8015BDC40CF682D9B863D
:1013C0008A86A6017B859E2DACDC87E0F501119213
:1013D0008A95E9F7D8CEAEE0B0E0E1EFF9E00C9401
:1013E000FC29288739874A875B876C877D878E87AA
:1013F000CE0108969BDE8823A9F06C85662339F020
:10140000288539854A855B857D858E8594DC17E046
:101410008091F5019091F60189133CC02E96E3E08E
:101420000C94182A87E0FE013896DE01119601908F
:101430000D928A95E1F74C85442349F32091F601FA
:1014400030E0C9010196877099275091F50158172E
:10145000190699F04D8397E0929FD001939FB00DAC
:101460001124A950BE4FFE01319601900D929A951C
:10147000E1F78093F601B3DDCACF29DC1092F601C3
:101480001092F50187E0EFE2F2E0DF011D928A950C
:10149000E9F7BDCF819FC001112489509E4F46DEE0
:1014A000882309F4BBCFE091F5011E9FF0011124C0
:1014B000E950FE4F208131814281538164817581E1
:1014C000868139DC8091F50190E00196877099273B
:1014D0008093F5019DCF80915E02869586958695D5
:1014E000089580915E028770089590915E029770D2
:1014F00081E009F480E0089580918A020895909136
:101500008A02982B90938A020895982F9095809143
:101510008A02892380938A02089510928A0208958C
:1015200090918902982B909389020895982F909515
:1015300080918902892380938902089510928902FB
:1015400008950895FECF089590915F02292F2823D2
:1015500029F08095892380935F02F4CF0895089540
:10156000FECF089590916002292F2823281721F09B
:10157000982B90936002F4CF089590916002292FE8
:10158000282329F08095892380936002E9CF08956C
:1015900080916002882321F01092600280E0E0CF09
:1015A0000895CF93C0918A0280918902C82B8091BF
:1015B0006002882329F0C82B0E94731E8111E8DF86
:1015C0008C2FCF910895CF93DF93C0910201D091DA
:1015D0000301E7DF8883C0910201D091030148E055
:1015E00050E066E572E0CE010E94382A892B59F05E
:1015F00088E0FE01A6E5B2E001900D928A95E1F740
:10160000CE010E94E31DDF91CF910895CF93DF9328
:10161000C0910001D0910101C4DF8983C091000114
:10162000D091010140E250E066E372E0CE010E94F9
:10163000382A892B59F080E2FE01A6E3B2E001903E
:101640000D928A95E1F7CE010E94F01DDF91CF91B6
:1016500008950E94C61D882329F08091E50287FF26
:1016600001C0D4CFB0CF0895FECF08959091E60287
:1016700092FF0EC098E0899F90011124622B609325
:101680005E0290DB80915E02869586958695ECCF12
:1016900089CB10925E0280E0E7CF90915E02809548
:1016A000892380935E02282F277059F4891749F007
:1016B0009091E60292FF05C08695869586957CDB23
:1016C000E8CF08959091E60292FB222720F928178F
:1016D00049F080FB92F99093E60285EE92E048D0C3
:1016E00082E0DBCF08958091E60282FB882780F9B3
:1016F00091E08927E7CF81E0E5CF80E0E3CF60E0AC
:1017000070E0CB0110C460E070E0CB0106D4F7CFED
:10171000A3E0B0E0EEE8FBE00C94FD29B9D3C4D31C
:101720001B82CE010396D7D381E08093F401DDD3F1
:101730001A8219828A8184618A83CE010196E6D356
:101740000E942A1CE0DF2396E2E00C94192AE0CFE5
:101750000895B0C308959DD381110C94EE1B089594
:10176000AFC30895BEC30895C0C30895C3C3089509
:10177000CDC30895DEC30895E6C30895A6E0B0E0A2
:10178000E4ECFBE00C94FB290E94E2208C018091A8
:101790008B0290918C028017910781F019821A8236
:1017A0000E94E220682F49815A81792F80E090E0E1
:1017B0000E948E0310938C0200938B022696E4E025
:1017C0000C94172AECD260939B0270939C02809336
:1017D0009D0290939E02609397027093980280936B
:1017E000990290939A02089508950895FDCF08955F
:1017F0000895FEDFFBCF0895FECF08950895FEDF24
:10180000FBCF81E0089581E09FE08FD7EEDFF1CF3D
:1018100091C50895089508950895FCDFFCDFFCCF7D
:101820009ADF811101C093DF8FE992E099DF85EEA5
:1018300092E09CDF9AD796DF93DA8091F301A0CAF9
:101840000E94D9207BD20E94361C77D589D4E8DF4C
:101850000E946E038CD77ED5D2CFA6E0B0E0E3E342
:10186000FCE00C94F429CDDF81110AC087DF62D53A
:101870000E9410190E9476032696EBE00C94102A21
:10188000C6D48DE8A82E82E0B82E750110E0F701CD
:1018900001917F01812F62D31F5F1A3009F43DC08F
:1018A0000817A9F380919F0281FD5ED3B1DFC82E96
:1018B00000E099249394802F51D3182FF501919132
:1018C0005F01891729F1D82ED926F12CEE24E39453
:1018D0008D2D8E21A9F0CC2099F0F9820A830E94E7
:1018E000E2209C838B839D8291E0812F8E2109F4DD
:1018F00090E049815A816B817C818D810E948E03A9
:10190000F394EE0CF7E0FF12E3CFF501319710836B
:101910000F5F0A3081F656DFAACF0813C3CFA6CFD8
:101920001F93CF93DF9319D1EC018115924508F0F5
:101930005CC0C11580E5D80708F0D9C0C03ED1050C
:1019400038F5CD3CD10508F0ABC0C83AD10580F4DC
:10195000C53AD10508F0A1C0C130D10509F440C095
:10196000CE010497813A9105D8F1D0E0C0E038C0AB
:10197000CE01885A91094B97C0F7C85AD0E0CC0FD6
:10198000DD1FC658DE4F0990D881C02DD46428C011
:10199000C11590E4D907E0F4C11520E2D20708F0A0
:1019A000C0C0C83ED105E0F0CE019A9581159F4197
:1019B000E0F68D2F74D1182FCE019927CED0C12FEC
:1019C000D0E0DC2FCC27CC27DF71C82BD92B08C067
:1019D000CE019927C2D0CC27DF70C82BD92BD06A73
:1019E000CE01DF91CF911F910895C03882E5D807CD
:1019F000B8F5C03692E5D90708F05BC0C03422E5DF
:101A0000D207C8F4C03282E5D80708F04BC02C2FAB
:101A10002695269590E2299F900111248C2F8370A2
:101A2000C1E0D0E002C0CC0FDD1F8A95E2F7C22BE7
:101A3000D32BDD68D5CF2C2F26952695277080E2F5
:101A4000289F900111248C2F8370C1E0D0E002C048
:101A5000CC0FDD1F8A95E2F7C22BD32BDC68C0CFF9
:101A6000C03C92E5D90760F48C2F8F71C03AD24503
:101A7000A8F5C82FD0E0DC2FCC27C46FD06AB0CF38
:101A8000CE01805C9245809708F06FCFDC2FCC2789
:101A9000CC27DF71C06FD06AA3CFA497D064A0CF4A
:101AA000D0659ECFCF71D0E0DC2FCC27C16FD06A3C
:101AB00097CF2C2F26952695277080E2289F90019E
:101AC00011248C2F8370C1E0D0E002C0CC0FDD1F49
:101AD0008A95E2F7C22BD32BDA6882CFE0D0C82FE9
:101AE000D0E0DC2FCC27CC27DF71D06279CF8C2FD0
:101AF0008F71D5D055E0D695C7955A95E1F7CF703F
:101B0000D0E0DC2FCC27282F30E084FF06C044E053
:101B1000220F331F4A95E1F73327C22BD32BD0690D
:101B20005FCF8D2F8F71BBD0182FCE01992715D085
:101B3000C12FD0E0DC2FCC27CC27DF71C82BD92BCD
:101B4000D4CF462F672F7A3018F4473008F4A1C657
:101B500080E090E00895F5DFE3CE803E9105C1F18D
:101B6000C8F48133910509F47DC048F489329105A8
:101B700009F46DC08A32910509F47BC00895893358
:101B80009105D1F082389105B9F08533910509F4BA
:101B900059C00895843E9105C1F138F4823E910503
:101BA00021F1833E910531F10895863E9105C1F101
:101BB000873E9105E1F108952091E502237009F037
:101BC00065C02091E60223FF14C089E290E00895E9
:101BD0002091E50220FD43C03091E60230FF09C0AC
:101BE00024FF4EC090E080E008952091E50222FDA0
:101BF000F7CF08952091E50222FD45C03091E6021D
:101C000030FD44C024FFF5CFEDCF2091E60221FF47
:101C1000F0CF8091E50284FDE5CF87EE90E0089556
:101C20002091E50223FFE5CF24FDDCCFF6CF209104
:101C3000E50223FD2EC03091E60231FFE3CF84EEB2
:101C400090E008952091E50225FFD3CFBECF2091EB
:101C5000E50225FD21C02091E60223FFCACF89E3DA
:101C600090E0C7CF2091E50226FFC3CF8AE290E043
:101C700008952091E50226FFBCCF81E390E008950E
:101C800083EE90E0089582EE90E0089580EE90E07B
:101C9000089586EE90E0089585E390E00895909190
:101CA000E50292FF10C041E0282F2471243009F092
:101CB00040E031E0282F2871283009F030E0431748
:101CC00011F02CE0822793FF10C041E0282F2471EF
:101CD000243109F040E031E0282F2871283109F043
:101CE00030E0431711F02CE082273091E60230FFFC
:101CF00010C051E0282F2171213009F050E041E05F
:101D0000282F2871283009F040E0541711F029E0FD
:101D1000822731FF10C041E0282F2171213109F0C5
:101D200040E031E0282F2871283109F030E04317D6
:101D300011F029E0822794FD877E08951092E70232
:101D40001092E8021092E9021092EA020895CF92EE
:101D5000DF92EF92FF92CF93DF9300D000D0CDB708
:101D6000DEB76B017C01E6D281110EC00E94EE202D
:101D7000C61AD70AE80AF90AC092E702D092E80226
:101D8000E092E902F092EA020F900F900F900F900C
:101D9000DF91CF91FF90EF90DF90CF900895A4E076
:101DA000B0E0E5EDFEE00C94FD29C4D2882371F08B
:101DB0000E94EE2069837A838B839C8369817A8178
:101DC0008B819C812496E2E00C94192A0E94EE20DB
:101DD00069837A838B839C838091E7029091E802E8
:101DE000A091E902B091EA0229813A814B815C819C
:101DF000280F391F4A1F5B1F29833A834B835C835B
:101E0000DDCF80E00895CF939C01FB01805E924579
:101E1000C1E0809738F4C581C11104C0822F8F7151
:101E20000E9428038C2FCF9108959C01FB0185818E
:101E3000882391F02B35FCE73F0761F02C359CE7B8
:101E4000390729F02A353C4741F455DC01C04BDC09
:101E500080E0089552DCFCCF81E008959C01FB01F5
:101E60008581882399F02130FCE73F0761F023301A
:101E70009CE7390739F021153C4749F40E944E038D
:101E800080E0089566DC0E945203FACF81E0089555
:101E9000089590E080E00E94562A9C0181E0233E54
:101EA0003E4F09F080E0089563EE7EEF90E080E021
:101EB0000C94842A6FEF7FEF90E080E00C94842AEA
:101EC000CF93DF93EC0182E090E00E944E2A88835A
:101ED000DF91CF910895FC01608182E090E00C9445
:101EE0006A2A83E090E00C944E2A682F83E090E009
:101EF0000C946A2ACF93DF93EC0184E090E00E9477
:101F0000562A99838883DF91CF910895FC016081DF
:101F1000718184E090E00C94842AAB01BC018FE0D5
:101F200090E00C947C2AAB01BC0183E190E00C941E
:101F30007C2A8EE090E00E944E2A982F81E0911139
:101F400001C080E00895682F8EE090E00C946A2A2A
:101F50000895FECF08950895FECF0895E82FF0E08C
:101F6000EA50FD4F80810895089580EA8A95F1F73F
:101F7000089500C00895F9CF08950895FECF0895FB
:101F8000EF92FF921F93CF93DF9300D000D00F9278
:101F9000CDB7DEB7CFD1182F60910003882309F4A5
:101FA00047C01A821982FE01339683E0DF011D9239
:101FB0008A95E9F7862F90E032977F01BF018A501A
:101FC0009D4FD4D18823E9F08091EB0290E045E069
:101FD00050E0B7018A509D4F0E94382A21E020939B
:101FE000A002892BC9F410E0B7DF812F0F900F906A
:101FF0000F900F900F90DF91CF911F91FF90EF9076
:1020000008958091A002882371F385E0D7011D9285
:102010008A95E9F71092A002A091EB02B0E0AA50D5
:10202000BD4F85E0F70101900D928A95E1F7DCCF75
:1020300070E06A507D4F8091EB0290E08A509D4F96
:102040001ED29CDFD2CFF894E82FE295EF70F0E03B
:1020500041A18F7021E030E0B90102C0660F771F07
:102060008A95E2F7CB01962F9095942391A392A1A4
:10207000892B82A378940895CF93DF93CBE0D1E0AE
:1020800089918F3F09F0DFDF81E0C031D807C1F7C8
:10209000C4E0D1E089918F3F09F0D5DF81E0CB30FA
:1020A000D807C1F7DF91CF910895B0E0A0E0EBE54C
:1020B000F0E10C94F729EC01D62E062F10E0C801B0
:1020C000855F9E4F7C01FC0120812F3F09F441C0B8
:1020D000F894E22FE295EF70F0E031A12F7081E0EB
:1020E00090E001C0880F2A95EAF7932F982B91A3CF
:1020F00092A18095892382A378943BDFE4E0F1E00C
:1021000031E0C12C21912F3F49F1A22FA295AF7050
:10211000B0E090968C9190E02F7002C095958795D5
:102120002A95E2F780FD1AC0832FC82A330F81E079
:10213000EB30F80739F7F70180818F3F09F083DF33
:1021400061E0C11001C060E08D2D15DFC00FD11F0F
:10215000C882CDB7DEB7E8E00C94132A80E0E5CF63
:10216000ACE0B0E0E6EBF0E10C94FD2980911001C9
:1021700081112CC085E0E0EBF1E0DE0118960190C2
:102180000D928A95E1F7888580930B01898580936C
:102190000C018A8580930D018B8580930E018C85BF
:1021A00080930F0187E0E6EBF1E0DE0111960190EC
:1021B0000D928A95E1F7FE013196A4E0B1E0CE01DF
:1021C000089621912D93E817F907D9F7809110010E
:1021D00095E0811190E09093000385E0891B809346
:1021E000EB024ADF8AE0E6EFF2E0DF01982F1D9272
:1021F0009A95E9F7ECEEF2E0DF011D928A95E9F796
:1022000085E045D0A6DE2C96E2E00C94192AAAE0DF
:10221000B0E0EDE0F1E10C94FC291A821982FE0194
:10222000339688E0DF011D928A95E9F710E0612F6F
:10223000CE0101963ADF1F5F1530C9F74AE050E042
:10224000BE016F5F7F4F8CEE92E00E94382AAC0196
:1022500021E0892B09F420E0452B49F08AE0FE01BA
:102260003196ACEEB2E001900D928A95E1F7609163
:10227000000370E06A507D4F45E08CEE92E008D09C
:10228000182F7EDE812B2A96E3E00C94182A0895FD
:10229000B0E0A0E0EEE4F1E10C94F729D82EE92EAD
:1022A000F62ED72F042FC22F222379F081E08093BE
:1022B000A3020E94E2209093A2028093A10280E0F8
:1022C000CDB7DEB7E8E00C94132AC090A302CC206F
:1022D000B1F38091A1029091A2020E945320059730
:1022E00070F310E0A8016D2D7E2D8F2D9D2F0E9483
:1022F000382A892B41F0A8016D2D7E2D8F2D9D2F21
:102300000E94452ACC2D1092A3028C2FD9CF23DA1C
:10231000811101C01CDA2ECACF930E94C029C82F98
:10232000811102C00E94BC298C2FCF910895809109
:10233000A70208958091A6020895EEDF8093A60279
:10234000E6DF8093A702F3DF80931001F3DF8111B2
:1023500044C00895EFDF811101C042C0089581E0BB
:102360009091A8029A3008F080E008950F931F938F
:10237000CF93DF93EC01162F072F8091A8028A30AC
:10238000B8F4612F702FCE0178D0C82F811122C0F0
:102390008091A8028F3FB9F40E94E2209093A50299
:1023A0008093A4028C2FDF91CF911F910F910895FC
:1023B0008091A4029091A5020E945320843F9140F5
:1023C00000F7C0E0EFCF8F5F8093A8028A3020F73C
:1023D000C1E0E8CF1092A802E5CF0C94A2210895A5
:1023E0000C94A5210895B0E0A0E0E9EFF1E10C9490
:1023F000F729FA0169017801C82F880FDD0B3097A2
:10240000B1F0DE0193E0AA0FBB1F9A95E1F7AF5E32
:10241000BE4F11968D919C91129787559D4F4C916F
:1024200050E0E417F50708F4AF010E94452ACE01F9
:102430000E948722182F8823D1F0E114F104B9F00B
:1024400083E0CC0FDD1F8A95E1F7FE01EF5EFE4FC2
:10245000438150E0E416F50608F4A701CF5EDE4F95
:102460006C817D8167557D4FC6010E94452A812F71
:10247000CDB7DEB7E8E00C94132AF7C008950CC17D
:102480000895A8E0B0E0E7E4F2E10C94FB29809124
:10249000C0029091C102A091C202B091C302BC01DE
:1024A000CD010E945C2011E0643671058105910523
:1024B00010F175DCDC01CB010296A11DB11D8983F1
:1024C0009A83AB83BC8310E000E030E020E044E07E
:1024D00050E0BE016F5F7F4F82E085DF182F8823B9
:1024E00051F00E94EE206093C0027093C10280936D
:1024F000C2029093C302812F2896E4E00C94172A1D
:10250000B0E0A0E0E6E8F2E10C94F529F82EE92E1F
:10251000D62EC72E8A0123DFAA24A394B12C8823A8
:1025200019F08AE0A82EB12CC1E0D0E06D2D7C2DF1
:102530008F2D9E2DF8010995811104C02196AC16AE
:10254000BD062CF4CDB7DEB7EAE00C94112ACC9F7F
:102550009001CD9F300D300D112490E080E045E3D7
:102560004A95F1F70000019682179307C1F7DECF75
:10257000AAE0B0E0EEEBF2E10C94F5297B01A0902B
:10258000BE01B090BF0101E010E09E012A5F3F4F05
:1025900050E040E070E060E080E025DF182F882305
:1025A00009F44BC065018FEFC81AD80A8091BC02AC
:1025B0009091BD02A091BE02B091BF02BC01CD01BD
:1025C0000E945C206F83788789879A8764367105BB
:1025D0008105910558F105E010E09E012F5F3F4F06
:1025E00050E040E070E060E081E0FDDE082F65E053
:1025F00070E0C601BDD011E09E81981310E0102359
:1026000039F10E94EE206093BC027093BD0280936A
:10261000BE029093BF0285E0FE013196A7EBB2E0C7
:1026200001900D928A95E1F711E012C065E070E02B
:10263000C6019ED09E818913CECF85E0F5013196EB
:10264000DE01119601900D928A95E1F71111E3CF09
:1026500085E0E7EBF2E0D70101900D928A95E1F772
:10266000812F2A96EAE00C94112A0F931F93CF939F
:10267000DF93D82FC92F8B0148EB52E141DF88232C
:1026800031F041E452E1B8018D2F9C2F39DFDF9109
:10269000CF911F910F9108950F931F93CF93DF93C5
:1026A000FB01C091BE01D091BF01CE01019625E092
:1026B000DC0101900D922A95E1F765E070E058D0B9
:1026C00088836E817F81888599850091B3021091FE
:1026D000B4022091B5023091B602601771078207EB
:1026E000930749F06093B3027093B4028093B502EC
:1026F0009093B6022CDBDF91CF911F910F9108953B
:10270000ACC808950E947C200E945E247CD80E9460
:10271000762496D80E947F240E948224F1DF0E94B2
:1027200098240E94492379D8F7CF9093D1018093C0
:10273000D00108950C94661E08950BC8089580E09A
:102740000DDC8170089563DD2FEF86E791E0215065
:1027500080409040E1F700C0000059DDF0DF8823A1
:1027600019F0EBDF0C942F210895EDCF0895089513
:10277000FC01680F791F8FEF91E36E177F0709F453
:1027800008952191822728E030E087FF06C0880F56
:10279000892721503109C9F7F0CF880FFACFA5E07A
:1027A000B0E0E5EDF3E10C94F9297C01DC018D91B9
:1027B0009D910D90BC91A02D8A839B83AC83BD839A
:1027C0008E010F5F1F4F21E030E040E050E0BC0180
:1027D000CD01C1D1F70180819181A281B3810196A0
:1027E000A11DB11D80839183A283B3838981259626
:1027F000E6E00C94152A84E00895F2C008951FC104
:1028000008951F93CF93DF93E9D0D0E0C0E010C0CC
:10281000412F6C2F8D2F0E9442029C01412F6C2F63
:102820008D2F0DD11F5F173099F7CF5FCA3011F090
:1028300010E0EECFDF5FD43049F7DF91CF911F91E9
:102840000895A4E0B0E0E7E2F4E10C94F7298A01EE
:102850009B0150E040E06C01F12CE12CC701B60176
:1028600015D12496E8E00C94132AA4E0B0E0EBE341
:10287000F4E10C94F7298A019B0150E040E06C01DF
:10288000F12CE12CC701B6012FD12496E8E00C947D
:10289000132A843028F46A3018F4473008F4A0C0B2
:1028A00080E090E0089580E1089550D1CB01089533
:1028B000A4E0B0E0EEE5F4E10C94F7298A019B0175
:1028C00050E040E06C01F12CE12CC701B60143D18E
:1028D0002496E8E00C94132AA4E0B0E0E2E7F4E1E7
:1028E0000C94F7298A019B0150E040E06C01F12C27
:1028F000E12CC701B60166D12496E8E00C94132AB6
:102900006ED0A3C14F925F926F927F928F929F92EF
:10291000AF92BF92FF920F931F93CF93DF93CDB7E8
:10292000DEB728970FB6F894DEBF0FBECDBFF82EE6
:102930008FE08F1530F10AD1DC01CB010197A1099D
:10294000B1098E010F5F1F4F21E030E040E050E001
:10295000BC01CD0100D18981811113C0F7D02B01B9
:102960003C01812C912C5401F1101FC089829A8264
:10297000AB82BC8240E0BE016F5F7F4F8FEC93E182
:10298000D4D528960FB6F894DEBF0FBECDBFDF9129
:10299000CF911F910F91FF90BF90AF909F908F901C
:1029A0007F906F905F904F90089584149504A604D3
:1029B000B70439F38E010F5F1F4F21E030E040E094
:1029C00050E0C501B401C7D08981811101C0FA94DA
:1029D0009FEF891A990AA90AB90AC6CF08950895DE
:1029E0000F931F93CF93DF93843030F56A3020F537
:1029F000473010F5C42FD0E0CC0FDD1F2EE0629FD2
:102A0000C00DD11D11243CE8839FC00DD11D1124A0
:102A1000CE0189960E944E2A082F10E0102F002721
:102A2000CE018A960E944E2A9801282BC901DF9177
:102A3000CF911F910F91089590E080E0F8CF1F9300
:102A4000CF93DF93962F122F632F8430D8F49A30D0
:102A5000C8F44730B8F4C42FD0E0CC0FDD1F2EE00F
:102A6000929FC00DD11D11249CE8899FC00DD11DDE
:102A70001124CE0189960E946A2A612FCE018A967E
:102A80000E946A2ADF91CF911F910895B0E0A0E0E3
:102A9000ECE4F5E10C94F3296B017C01E8014B01B6
:102AA0005C01820E931EA41EB51EC6018996C81431
:102AB000D904EA04FB0429F4CDB7DEB7ECE00C94AA
:102AC0000F2A20E3C21622E0D206E104F10450F4FA
:102AD0000E944E2A888321968FEFC81AD80AE80AE6
:102AE000F80AE3CF1882F7CFB0E0A0E0EAE7F5E11B
:102AF0000C94F3296B017C01E8018B014B015C0113
:102B0000820E931EA41EB51E9601C6018996C81496
:102B1000D904EA04FB0429F4CDB7DEB7ECE00C9449
:102B20000F2A40E3C41642E0D406E104F10440F465
:102B3000201B310BFE01E20FF31F60810E946A2A05
:102B40008FEFC81AD80AE80AF80ADECF67EA71E000
:102B500080E090E00895B0E0A0E0E1EBF5E10C94B6
:102B6000EF296B017C0129013A0158014B0127EA49
:102B7000821A2DEF920AD0E0C0E0C4018C0F9D1F95
:102B8000AE0170E060E0441555056605770528F054
:102B9000CDB7DEB7E0E10C940B2A4C0D5D1D6E1D28
:102BA0007F1D85010C0F1D1F473A514061057105BE
:102BB00030F40E944E2AF80180832196DECFF8017E
:102BC0001082FBCF4F925F926F927F92AF92BF9233
:102BD000CF92DF92EF92FF920F931F93CF93DF93E9
:102BE0006B017C0129013A0158018B01075A1D4FE5
:102BF000D0E0C0E0C8018C0F9D1FAE0170E060E026
:102C0000441555056605770578F0DF91CF911F9142
:102C10000F91FF90EF90DF90CF90BF90AF907F909B
:102C20006F905F904F9008954C0D5D1D6E1D7F1D40
:102C3000473A51406105710530F4F501EC0FFD1F75
:102C400060810E946A2A2196D5CF4F925F926F923F
:102C50007F92AF92BF92CF92DF92EF92FF920F934B
:102C60001F93CF93DF93CDB7DEB760970FB6F8947D
:102C7000DEBF0FBECDBF1A821982FE0133968EE0F1
:102C8000DF011D928A95E9F70BE110E097EA492EE2
:102C900055245394612C712C29E5A22E22E0B22EEA
:102CA0006201B1E14B165104610471042CF080E122
:102CB000C82ED12CE12CF12CA601B501CE01019634
:102CC0000E945B2AAC0CBD1C0D2C000CEE08FF080A
:102CD0004C185D086E087F080150110909F76096CD
:102CE0000FB6F894DEBF0FBECDBFDF91CF911F911D
:102CF0000F91FF90EF90DF90CF90BF90AF907F90BB
:102D00006F905F904F900895CF93DF93EB018631E2
:102D10009C4711F50E947C0A9D81992399F08A7A3B
:102D200091E009F490E09093C402811109C089E216
:102D30000E94201F0E94290B80E0DF91CF9108950F
:102D400085E3F6CF8091C402811104C089E20E941C
:102D5000371FF0CF85E3FBCF81E0EFCFCF93DF9339
:102D6000EC01FB018581882309F4CEC09E01305718
:102D70002332310508F0AEC085EE92E00E94B60B1A
:102D8000FE01E150F047E232F10520F4EA55F54D3D
:102D90000C94E0298091E50281608093E50293C064
:102DA0008091E60288608093E6028DC08091E50202
:102DB0008260F3CF8091E5028460EFCF8091E502DD
:102DC0008860EBCF8091E6028160EDCF8091E602D2
:102DD0008260E9CF8091E5028061DFCF8091E502DA
:102DE0008062DBCF8091E5028064D7CF0E946706C6
:102DF0008091E5028068D1CF8091E5028C60CDCFD3
:102E00008091E6028360CFCF8091E5028E7FC5CFAF
:102E10008091E602877FC7CF8091E5028D7FBDCF8D
:102E20008091E5028B7FB9CF8091E502877FB5CF96
:102E30008091E6028E7FB7CF8091E6028D7FB3CF7F
:102E40008091E5028F7EA9CF8091E5028F7DA5CF8D
:102E50008091E5028F7BA1CF0E9467068091E502F9
:102E60008F779BCF8091E502837F97CF8091E60299
:102E70008C7F99CF8091E50282FB992790F921E020
:102E8000922790FB82F990FB83F987CF8091E6022D
:102E9000982F909591708E7F892B90FB81F983CF2D
:102EA0009091E502892F8F7B96FF806476CF0E94F8
:102EB00067069091E502892F97FB87F980586DCFBF
:102EC00081E00E94BC0B85EE92E00E94B80B0E944C
:102ED000670680E0DF91CF91089580E0F2CF909176
:102EE000E502892F8F7E94FF806157CF9091E50294
:102EF000892F8E7F90FF816050CF9091E602892FBD
:102F0000877F93FF88604FCF81E0E4CF282F35EB98
:102F10002303C001112497FF04C080589109892F11
:102F2000089580589F4FFBCF8091CB0280FF0DC04A
:102F300060912E0170E0660F771F6038710570F5A3
:102F40006115710569F1862F089581FF07C06091B1
:102F50002E0184E0689FB0011124EFCF60912E0113
:102F600082FD0AC08091CA028823A9F020912D0118
:102F700060912E01821710F088E0ECCF869FC0018F
:102F8000112433E0880F991F3A95E1F7622F70E022
:102F90000E94CD29D2CF68E070E0D5CF8FE70895A9
:102FA00081E008958091CB0280FF0CC060912A01DE
:102FB00070E075956795759567956115710549F18F
:102FC000862F089581FF06C060912A0170E07595F3
:102FD0006795F3CF60912A0182FD0BC09091C902E1
:102FE0009923A1F06091290180912A01961738F068
:102FF000682F70E06038710500F38FE70895899FAE
:10300000C001112470E00E94CD29F4CF61E070E08E
:10301000D7CF81E008958D3C29F486DF8195809398
:10302000CF0208958E3C11F47FDFF9CF8F3C29F455
:103030007BDF81958093CE020895803D11F474DF8B
:10304000F9CF893D21F4AEDF8093D00208958A3D07
:1030500019F4A8DF8195F8CF8B3D29F4A3DF819582
:103060008093D10208958C3D11F49CDFF9CF9FE24B
:10307000980F983070F4815D990B21E030E001C029
:10308000220F8A95EAF78091CD02822B8093CD02A0
:1030900008958D3D31F48091CB0281608093CB0205
:1030A00008958E3D21F48091CB028260F7CF8F3D51
:1030B000B9F78091CB028460F1CF4091CE028D3C74
:1030C00059F48091CF0287FF0DC01092CF024111B9
:1030D0000BC01092CA0208C08E3C81F48091CF02CE
:1030E00018169CF3442381F08091D0029091D10274
:1030F000892B09F05AC01092C90208958F3C49F4F7
:1031000047FFF0CF1092CE028091CF028111ECCF19
:10311000E0CF803D19F41416ACF3E4CF9091D002C7
:10312000893D29F41916F4F61092D002DBCF8A3DBE
:1031300019F497FFD7CFF8CF9091D1028B3D29F4A6
:1031400097FFD0CF1092D102CDCF8C3D19F4191634
:10315000CCF3C8CF9FE2980F983090F4815D990B23
:1031600021E030E0B90102C0660F771F8A95E2F7CF
:10317000CB0180959091CD0289238093CD02B2CF6F
:103180008D3D31F48091CB028E7F8093CB02AACF0C
:103190008E3D21F48091CB028D7FF7CF8F3D09F0DA
:1031A000A1CF8091CB028B7FF0CF08950E94E220C7
:1031B0002091CE023091CF02232B21F08093C702C1
:1031C0009093C8022091D0023091D102232B21F09C
:1031D0008093C5029093C6028CEC92E014C586E001
:1031E000ECECF2E0DF011D928A95E9F71092CA0239
:1031F0001092C9021092CB020895FC0182818111C4
:103200000DC0838181110AC08481811107C081E0D2
:103210009581911101C080E08170089581E0FCCF1B
:10322000A6E0B0E0E6E1F9E10C94FC2986E0ECECE4
:10323000F2E0DE01119601900D928A95E1F710926D
:10324000CE021092CF021092D0021092D1028B8146
:103250009C81892B81F08091C7029091C80223D76D
:103260009C018091CA028823A9F190912F019217A5
:10327000130608F43CC08D819E81892B89F08091D2
:10328000C5029091C6020FD79C018091C902882384
:1032900009F463C090912B019217130608F46BC0D8
:1032A000BE016F5F7F4F8CEC92E011D6811104C09C
:1032B0008CEC92E0A2DF811179DF86E0FE0131968D
:1032C000ACECB2E001900D928A95E1F72696E3E02E
:1032D0000C94182A409130019AE0499FA0011124D2
:1032E0004217530740F68F5F8093CA0202C08F3F98
:1032F000D1F71B81112351F017DE9FEF11160CF44B
:1033000091E0899F802D11248093CE021C8111238E
:1033100051F00ADE9FEF11160CF491E0899F802D89
:1033200011248093CF028091CE02882309F4A3CF89
:103330001091CF02112309F49ECFE8DD882349F0D4
:103340008093CE02812FE2DD882329F08093CF0283
:1033500092CF81E0F5CF81E0F9CF40912C019AE046
:10336000499FA00111244217530708F099CF8F5F9E
:103370008093C90202C08F3FD1F71D81112351F004
:1033800011DE9FEF11160CF491E0899F802D11241E
:103390008093D0021E81112351F004DE9FEF11169D
:1033A0000CF491E0899F802D11248093D1028091AB
:1033B000D002882309F474CF1091D102112309F4AB
:1033C0006FCFA4DD882349F08093D002812F9EDD4A
:1033D000882329F08093D10263CF81E0F5CF81E08B
:1033E000F9CFB0E0A0E0E7EFF9E10C94F629E82F7F
:1033F000F0E0EC53FE4FB490282F269526952695A5
:1034000030E0F901EC59FD4F0491877010E0082E6F
:1034100002C0159507950A94E2F701701127F9018A
:10342000EC5AFD4FE490F12C082E02C0F594E7947D
:103430000A94E2F791E0E922FF24F901EC5BFD4FE9
:10344000C491D0E002C0D595C7958A95E2F7C170C6
:10345000DD27C62ED12C0115110549F5E114F10423
:1034600031F086EE0E94CC03C601009771F5B601DB
:103470008B2D0E943D04C601009779F5E114F104FB
:10348000A1F50115110531F081EE0E941004C6016D
:103490000097C9F5CD2B31F08CE20E945304C11482
:1034A000D104C9F5CDB7DEB7E9E00C94122A81EE5C
:1034B0000E94CC03C601009789F2EFE9FFE0319743
:1034C000F1F700C000000197F6CFEFE9FFE0319778
:1034D000F1F700C000000197C8CFEFE9FFE0319796
:1034E000F1F700C000000197C7CF86EE0E941004DC
:1034F000C601009731F2EFE9FFE03197F1F700C024
:1035000000000197F6CFEFE9FFE03197F1F700C037
:1035100000000197BDCF8FE99FE00197F1F700C050
:10352000000091E0C91AD108BACFB0E0A0E0EBE901
:10353000FAE10C94F6298C01D62FF72EE42E8AE0BE
:10354000B82E8D2F9F2DF80109958823B9F0813071
:1035500009F05EC08D2F9F2DF8010995C82F81308D
:1035600091F48D2F9F2DF80109950E9453048E2D03
:1035700090E0009709F044C0C111E3CFCDB7DEB7AA
:10358000E9E00C94122A823039F48D2F9F2DF80136
:1035900009950E94CC03EBCF833039F48D2F9F2DFA
:1035A000F80109950E941004E2CF843001F78D2FB5
:1035B0009F2DF8010995C82FD12CC12C2C2F2053F9
:1035C000330BC9012A30310568F0C114D10479F2F6
:1035D0008FE99FE00197F1F700C0000091E0C91A60
:1035E000D108F3CFBC9C9001BD9C300D11246C011F
:1035F000C20ED31E8D2F9F2DF8010995C82FDECF47
:10360000EFE9FFE03197F1F700C000000197B1CF7B
:103610006E2DE7DE96CF0F931F93CF93DF93C42FCA
:10362000D22FFC0185818823C1F04093D402CAD5F2
:103630009093D3028093D20280E28C0F883040F4C2
:10364000C77081E001C0880FCA95EAF70E945A044A
:10365000DF91CF911F910F9108951091D40214130F
:1036600031C08091D2029091D3021DD5883C910542
:1036700048F5C0E2CD0F1D17B9F080E2810F883008
:1036800040F4177081E001C0880F1A95EAF70E9494
:103690005F04C83048F481E09D2F977001C0880F07
:1036A0009A95EAF70E945A04802F0E945304C8306A
:1036B00078F6D77081E001C0880FDA95EAF70E94AA
:1036C0005F04C6CF80E28C0F883010F6C77081E0AF
:1036D00001C0880FCA95EAF7F2CF0F93FC01CB0126
:1036E000E851FC47E730F10588F5E853F54D0C94B7
:1036F000E02906E221EE41EE6AE17CE78CDF80E022
:103700000F91089507E225EE45EE6BE17CE7F6CFD9
:1037100006E221EE40EE68E17CE7F0CF07E225EE1D
:1037200044EE69E17CE7EACF06E221EE42EE6CE18D
:103730007CE7E4CF07E225EE46EE6DE17CE7DECFE5
:1037400008E221E045EE6EE17CE7D8CFFB01858100
:10375000882319F01092D402D3CF81E0D1CF1F93E8
:10376000CF93DF939C01FB0127378CE7380749F0A3
:10377000C1E028373C47A9F4C581CC2321F128D0EA
:1037800004C0C581CC2391F020D00E94D20623D062
:10379000D82F1ED0C82F19D04D2F6C2F0E94E807AC
:1037A000C0E08C2FDF91CF911F9108950ED00E9421
:1037B000DC0611D0182F0CD0D82F07D0412F6D2F39
:1037C0000E94E807EECF04D0F2CF80913301089534
:1037D000809132010895809131010895A3E0B0E015
:1037E000E4EFFBE10C94FD29AE014F5F5F4FBE019A
:1037F0006E5F7F4FCE01039670D18B81863239F494
:103800008A81833021F481E09981983009F080E049
:1038100081702396E2E00C94192A882321F048E075
:1038200063E086E280C14FEF6FEF8FEFFBCF08952B
:1038300008950F931F93CF93DF938B01D82FC92F38
:10384000F7DFB8018D2F9C2F98D1DF91CF911F9179
:103850000F91089541D180E0E0DF60E070E0CB019E
:10386000E8DF0E9401144CD881E0D7CFE0DF71D1AE
:10387000DFDFB4DF811101C0EDCF089508959C0111
:10388000FB018581882349F0A9015757403851052C
:1038900028F4822F37D880E0089581E008952FEF33
:1038A000FC0120830895FBCF089580E00895AEE0E9
:1038B000B0E0EDE5FCE10C94FC298D839E83162F8E
:1038C0008D819E81F2DF811115C0AD81BE81EC91A9
:1038D000E150E331F0F4F0E0E153F54D0C94E029D0
:1038E000ED81FE8111828CE08283612F8D819E812A
:1038F0000E949A132E96E3E00C94182AAD81BE81A3
:1039000011968C91833081F148F48130B9F0823086
:10391000F9F08FEFED81FE818083E7CF8430C9F726
:10392000AD81BE8112961C92129713961C9213972A
:1039300014961C92149715961C92D7CF4FD40E94C0
:10394000E629ED81FE816283738384839583CDCFE5
:1039500000D10E94E629AD81BE8112966D937D93C0
:103960008D939C931597C1CFED81FE812281822F8B
:1039700090E03396245E8A30910508F0B6CF11921C
:1039800001962813F8CFB1CFAD81BE8111968C91ED
:10399000823041F0853009F0BCCFED81FE8182811B
:1039A0006DDFA3CFAD81BE8112968D919D910D905B
:1039B000BC91A02DBC01CD010E94E6293ADF95CF34
:1039C000AD81BE8113964C91139712966C9112970C
:1039D00011968C910E94FD13982789279827ED81D5
:1039E000FE819583848381CFAD81BE8114962D9114
:1039F0003C91159732272327322713964C91139722
:103A000012966C91129711968C910E94FF136DCFB4
:103A10000E9401146ACF612F8D819E8144DF65CFA2
:103A20000E945314ED81FE8181835FCF0E94551463
:103A3000982789279827AD81BE8112969C938E93F3
:103A4000119753CFED81FE81638170E08181928176
:103A5000AF014C5F5F4F9827892798270E94581421
:103A600044CFAD81BE8113966C91139770E011968F
:103A70008D919C911297AD014C5F5F4F98278927DC
:103A800098270E946C1431CF0E9480142ECF0E9480
:103A9000FB13C8CFAD81BE8113966C91139770E074
:103AA00011968D919C911297AD014C5F5F4F9827B5
:103AB000892798270E94211418CFED81FE81638108
:103AC00070E081819281AF014C5F5F4F9827892719
:103AD00098270E94351409CF0895EF92FF920F9313
:103AE0001F93CF93DF937C018B01EA01892B31F087
:103AF00085E290E00E944E2AF701808301151105AE
:103B000031F086E290E00E944E2AF80180832097EF
:103B100029F087E290E00E944E2A8883CDB7DEB775
:103B2000E6E00C94152ACF93DF93D62FC42F682F8D
:103B300085E290E00E946A2A6D2F86E290E00E9462
:103B40006A2A6C2F87E290E00E946A2ADF91CF9167
:103B50000895A4E0B0E0EFEAFDE10C94FD2988E2CD
:103B600090E00E944E2A282F30E050E040E0CA0149
:103B7000B9012496E2E00C94192A88E290E00C94B2
:103B80006A2A9093DB028093DA0208953BD2982F41
:103B900081E0913009F080E008950E949A1181112E
:103BA00003C08091D5020895E091DA02F091DB0222
:103BB000309739F00190F081E02D309711F00995A0
:103BC000089580E00895E091DA02F091DB023097E9
:103BD00031F00280F381E02D309709F009950895C6
:103BE000DC01E091DA02F091DB02309759F0848138
:103BF0009581892B39F086E08C930480F581E02D46
:103C0000CD0109950895DC01E091DA02F091DB0223
:103C1000309759F086819781892B39F082E08C9317
:103C20000680F781E02DCD0109950895A3E0B0E06D
:103C3000ECE1FEE10C94FD299C018091D802909169
:103C4000D90282179307B1F03093D9022093D8029A
:103C5000E091DA02F091DB02309761F00084F185A7
:103C6000E02D309739F083E089833B832A83CE01AE
:103C7000019609952396E2E00C94192AA3E0B0E09E
:103C8000E4E4FEE10C94FD299C018091D602909120
:103C9000D70282179307B1F03093D7022093D60250
:103CA000E091DA02F091DB02309761F00084F18557
:103CB000E02D309739F084E089833B832A83CE015D
:103CC000019609952396E2E00C94192AE091DA0214
:103CD000F091DB02309731F00284F385E02D3097CC
:103CE00009F009950895CF93DF93C0910201D09117
:103CF000030122964BDF882381F08091E50287FF44
:103D00000CC0C0910001D091010122969EE180E09B
:103D1000915028F4DF91CF91089596E0F8CF299142
:103D20002223B1F38F5FF4CFCF93C82F882319F1EB
:103D30002DDF882319F18091E50287FF1FC0EC2F4A
:103D4000E695E695E695C03FB0F48091000190912C
:103D50000101E80FF92FF11D228130E0C77081E0E9
:103D600090E002C0880F991FCA95E2F728233923F3
:103D700081E0232B09F480E0CF9108958091020126
:103D800090910301FC013296089621912C1721F0A5
:103D9000E817F907D1F7EFCF81E0EECF9C01FC01E6
:103DA00032968FEF90E04191461751F08F3F19F412
:103DB000411101C0892F9F5F9630A9F78F3F09F409
:103DC0000895280F311D87FD3A95F9016283089502
:103DD0009C01FC013296285F3F4F8191861303C0FE
:103DE000DF0111971C92E217F307B9F70895E62F48
:103DF000E695E695E695603F68F4E80FF92FF11D2A
:103E0000677021E030E001C0220F6A95EAF78281F5
:103E1000822B82830895E62FE695E695E695603F2E
:103E200070F4E80FF92FF11D677081E090E001C098
:103E3000880F6A95EAF78095928189238283089595
:103E4000CF93C82FA3DE6C2F882359F08091E50211
:103E500087FF07C08091000190910101C8DFCF91D9
:103E60000895809102019091030198DFF8CFCF93DC
:103E7000C82F8CDE6C2F882359F08091E50287FFD4
:103E800007C08091000190910101C5DFCF91089595
:103E900080910201909103019BDFF8CF77DE8823A8
:103EA00079F08091E50287FF0BC0E0910001F0916D
:103EB000010132968EE1DF011D928A95E9F708959E
:103EC000E0910201F0910301329686E0F4CFDC012B
:103ED000FB0111969C9111978181981322C0129633
:103EE0008C911297882319F0928189131AC0139626
:103EF0008C911397882319F09381891312C015961A
:103F00008C911597882319F0958189130AC014960E
:103F10009C91992321F081E02481291303C080E042
:103F200001C081E0817008950895FECF0895A4E056
:103F3000B0E0EDE9FFE10C94FD29811112C081E0B0
:103F4000809337018091340190913501A091360121
:103F5000B0913701BC01CD01E8DF2496E2E00C947A
:103F6000192A82E0EDCFA4E0B0E0E9EBFFE10C9488
:103F7000FD2983E0809337018091340190913501D0
:103F8000A0913601B0913701BC01CD01CEDF24965E
:103F9000E2E00C94192ACBCF0895A4E0B0E0E3ED61
:103FA000FFE10C94FD2981E0809337018091340179
:103FB00090913501A0913601B0913701BC01CD013E
:103FC000B4DF2496E2E00C94192AE7CF0895A4E028
:103FD000B0E0EDEEFFE10C94FD2991E0811101C00C
:103FE00090E0909336018091340190913501A09139
:103FF0003601B0913701BC01CD0197DF2496E2E094
:104000000C94192A809136010895A4E0B0E0EBE009
:10401000F0E20C94FD298093350180913401909158
:104020003501A0913601B0913701BC01CD017DDF92
:104030002496E2E00C94192A809135010895A4E0B9
:10404000B0E0E5E2F0E20C94FD2980933401809128
:10405000340190913501A0913601B0913701BC0136
:10406000CD0163DF2496E2E00C94192A809134019B
:10407000089508950895FECF089508950895F9CFFD
:104080000895CF93FADF0E940711F8DFC0E08C2F6C
:104090000E94AE0F811105C0CF5FCA30C1F7CF912A
:1040A000089581E0FCCFCF93DF93EC018BD08C1B84
:1040B0009D0BDF91CF910895CF92DF92EF92FF9207
:1040C000CF93DF9300D000D0CDB7DEB76B017C017A
:1040D00085D0DC01CB018C199D09AE09BF09BC015B
:1040E000CD010F900F900F900F90DF91CF91FF9027
:1040F000EF90DF90CF90089585B7806885BF85B732
:10410000806885BF08951F921FB61F9211248F9358
:104110009F93AF93BF938091DC02811113C0809174
:10412000010390910203A0910303B091040341960F
:10413000A11DB11D8093010390930203A09303037B
:10414000B0930403BF91AF919F918F911F901FBEB9
:104150001F90189580910903843031F10E94560315
:104160001092DC0288E190E020E40FB6F894A89564
:10417000809360000FBE2093600083B7817F8460CE
:1041800083BF83B7816083BF7894889583B78E7F20
:1041900083BF0FB6F894A8958091600088618093E2
:1041A0006000109260000FBE08950E9467060C9494
:1041B0005A0382E084BD93E095BD9AEF97BD80934A
:1041C0006E0008952FB7F894809101039091020337
:1041D000A0910303B09104032FBF0895A4E0B0E0C1
:1041E000E4EFF0E20C94FD298FB7F89420910103DD
:1041F00030910203409103035091040329833A83D1
:104200004B835C838FBF69817A818B819C812496EB
:10421000E2E00C94192A78941F921FB61F92112481
:104220008F939F93AF93BF9380910103909102036B
:10423000A0910303B09104030196A11DB11D8093C9
:10424000010390930203A0930303B0930403BF916F
:10425000AF919F918F911F901FBE1F90189587E778
:1042600097E7909301088093000888E19AE00FB6E1
:10427000F894A895809360000FBE90936000FFCFE4
:1042800088E19AE00FB6F894A895809360000FBE7D
:1042900090936000FFCF8EE1499B02C08150E1F70F
:1042A000499BFECF0895599880E28A95F1F7599A73
:1042B0000895FC013BE03A95F1F798E020E080E0BA
:1042C00031E040E14A95F1F7880F499B02C08160D7
:1042D000232742E04A95F1F7000040E14A95F1F7C3
:1042E000915079F790E19A95F1F799B132E03A95CA
:1042F000F1F7000040E14A95F1F796959170922709
:104300002081920F90830895A1E0B0E0EAE8F1E205
:104310000C94F92919828C017C01E60EF11C0E1512
:104320001F0541F481E09981911180E02196E6E03A
:104330000C94152AB0DFCE010196BBDFF801819302
:104340008F01EDCF519A599A08955198599AE99A47
:10435000E9E6F0E08081837F808308956150770BE8
:1043600091E001C0990F6A95EAF720E031E09111E0
:1043700008C0222391F0599A80E28A95F1F7599862
:104380000895492F482339F0599A232740E24A9546
:10439000F1F79695ECCF5998F9CF5998EDCFFF9258
:1043A0000F931F93CF93DF93EC018C01060F111D28
:1043B000C017D10729F4CDB7DEB7E5E00C94162A73
:1043C000F99071DF68E08F2DC9DFF2CF1F920F9255
:1043D0000FB60F9211240F931F932F933F934F9378
:1043E0005F936F937F938F939F93AF93BF93EF935D
:1043F000FF93CF93DF930F92CDB7DEB719824BDFD8
:10440000CE01019656DF282F082F069506950695B2
:10441000982F92959570802F8570980F892F8370B3
:1044200096959695890F822787709981892B09F037
:1044300058C0043008F055C080E18A95F1F7599AC8
:10444000519A82E08A95F1F700C0599888E0089F58
:1044500080011124D801AF5EBE4F1696ED91FC91FC
:1044600017973097A9F06091BE017091BF01149623
:104470002D913C911597260F371F11968D919C9188
:104480001297680F791F13964C9113978C91099589
:10449000F801EF5EFE4F6381662349F02091BE0173
:1044A0003091BF0184819581820F931F78DFFBDEFD
:1044B00080E18A95F1F759985198599A80E18A9547
:1044C000F1F7F801EF5EFE4F6081662349F020911D
:1044D000BE013091BF0181819281820F931F14DF51
:1044E000DADE0F90DF91CF91FF91EF91BF91AF9105
:1044F0009F918F917F916F915F914F913F912F91FC
:104500001F910F910F900FBE0F901F9018950F9352
:104510001F93CF93DF93EC0104970CF049C0F894FC
:10452000519A599885E08A95F1F700008C2F86956D
:1045300085709C2F9570890F982F9370869586951E
:1045400023E0CC0FDD1F2A95E1F7890F8E01082BA0
:10455000AADE00C068E0802F01DF80E18A95F1F7D4
:104560005198599A499B1DC087E090E049991BC01A
:10457000FE01EF5EFE4F63816623F1F02091BE01E4
:104580003091BF0184819581820F931FBDDE81111F
:1045900013C0519A599A7894DF91CF911F910F913E
:1045A000089500C0DFCF019729F4519A599A789461
:1045B00080E0F2CF00C0DACF6EDE80E28A95F1F7BC
:1045C0005998519A80E18A95F1F7CF5EDE4F688164
:1045D000662349F02091BE013091BF0189819A8103
:1045E000820F931FDCDE5FDE789481E0D5CF282F29
:1045F000CB01BA01309109033430D9F42F702093E4
:10460000E9002FEF3091E800215035FD06C035ED6F
:104610003A95F1F700002111F5CF2091E80025FF30
:1046200008C050E040E0FAD18091E8008E77809396
:10463000E8000895792F603229F440E250E0682FB5
:1046400082E0D5CF0895BC0143E050E084E0CFCFB5
:10465000BC0146E050E084E0CACFBC0140E250E03B
:1046600084E0C5CFCF93DF93D82FC92FCBDC48E0B0
:1046700050E06D2F7C2F81E0BADF88E0ED2FFC2F1A
:10468000ADEDB2E001900D928A95E1F7DF91CF9107
:104690000895A0E2B0E0EEE4F3E2AFC68091090332
:1046A0008430F9F483E08093E9008091E80082FF90
:1046B00018C08091E80090E085FF08C050E040E01D
:1046C00060E270E0CE010196F6D191E08091E800C1
:1046D0008B778093E800992321F060E2CE01019668
:1046E000E6D8A096E2E0A5C680910803811107C034
:1046F00068D3BFD38091E20084608093E200089584
:1047000010920803089549DC81E061CC60910503B3
:1047100081E0611101C080E026CC9091090381E025
:10472000943009F080E06091050335CC42E061EC03
:1047300081E0C3D242E261EC84E0BFD242E261ECAC
:1047400082E0BBD242E260EC83E0B7D290910903F1
:1047500081E0943009F080E060910503E8CB80911E
:104760000B03893081F148F4823009F497C083301B
:1047700009F458C0813041F008958A3009F481C0AD
:104780008B3009F469C0089580910A03813A09F0D9
:1047900048C08091E800877F8093E80080910E03F5
:1047A00090910F03892B59F468E08DED92E070E051
:1047B000CFD18091E8008B778093E800089560E086
:1047C00090E080E0F4CF80910A03813251F580912E
:1047D0000E0390910F038D7F892B19F58091E800CE
:1047E000877F8093E8008091E80082FF16C0909157
:1047F000F3008091F200029731F48091F100813052
:1048000011F0863019F48091F100FFDB8091E8000F
:104810008B778093E80085D204C0809109038111D1
:10482000E2CF089580910A03813AD9F780910E036F
:1048300090910F03892BA9F78091E800877F8093DF
:10484000E8008091E80080FFFCCFDCDB8093F10082
:104850008091E8008E77DDCF80910A03813209F7DD
:1048600080910E0390910F03892BD9F68091E80077
:10487000877F8093E80055D280910C03A8DB0C94CD
:10488000670680910A03813261F68091E800877F94
:104890008093E80046D280910D03D1CB80910A032A
:1048A000813A09F0BECF8091E800877F8093E800CD
:1048B0008091E80080FFFCCFD9DBC8CF84B7877F29
:1048C00084BF0FB6F894A8958091600088618093AA
:1048D0006000109260000FBE80E890E00FB6F89480
:1048E00080936100909361000FBE6FCB6AD2C1D2FA
:1048F000E2EEF0E0808184608083789423C588E3D1
:1049000091E03FC980910903853029F48091090322
:10491000853011F04ACC08951DDCB3DB8823B1F358
:1049200080910703882391F363D00E946706EECF3E
:1049300008959A01409110035091110300C0AC01F9
:10494000CB01D901252F332723303105D1F070F465
:104950002130310509F447C02230310569F48BE577
:1049600090E02EEB32E02D933C93089521323105F7
:10497000E9F02232310539F190E080E030E020E0CA
:10498000F2CFCA019927413059F08230910559F090
:10499000EAEBF2E0892B81F7849190E09F01E3CF6D
:1049A000EEE8F2E0F9CFE4E7F2E0F6CF83309105EC
:1049B00018F7880F991FFC01E753FE4F20813181C2
:1049C00089E090E0D0CF83309105B0F6FC01EE0F86
:1049D000FF1FED53FE4F2081318180549E4FFC011B
:1049E000808190E0C0CF82E190E029E133E0BBCF4D
:1049F00080E189BD82E189BD09B400FEFDCF8091CF
:104A0000D8008F7D8093D8008091E00082608093F1
:104A1000E0008091E00081FDFCCF0895AF92BF924D
:104A2000CF92DF92FF920F931F93CF93DF936C018E
:104A3000EB018A0195D1F82E811123C001151105D2
:104A400039F0F80180819181C81BD90BC80ED91E9D
:104A5000B12CA12C2097A9F08091E80085FD21C000
:104A60008091E8008E778093E80001151105A1F090
:104A7000F80180819181A80EB91EB182A08285E0E3
:104A8000F82E8F2DDF91CF911F910F91FF90DF9026
:104A9000CF90BF90AF90089563D18823D9F2F82EBC
:104AA000F0CFF60181916F018093F1002197FFEF24
:104AB000AF1ABF0ACFCFAF92BF92CF92DF92FF92D1
:104AC0000F931F93CF93DF936C01EB018A0148D1C1
:104AD000F82E811123C00115110539F0F8018081EC
:104AE0009181C81BD90BC80ED91EB12CA12C2097BF
:104AF000A9F08091E80085FD21C08091E8008B77C6
:104B00008093E80001151105A1F0F80180819181E1
:104B1000A80EB91EB182A08285E0F82E8F2DDF91FC
:104B2000CF911F910F91FF90DF90CF90BF90AF90EA
:104B3000089516D18823D9F2F82EF0CF8091F10094
:104B4000F60181936F012197FFEFAF1ABF0ACFCF14
:104B5000FC01CB0120911003309111032617370778
:104B600090F0009729F42091E8002E772093E80038
:104B700040E0009751F4411108C08091E80082FFA5
:104B800031C080E00895C901F3CF209109032223A9
:104B9000A9F12530A9F12091E80023FD2DC0209135
:104BA000E80022FDEACF2091E80020FFE2CF30911B
:104BB000F3002091F200009719F02830310558F0E9
:104BC00041E02830310509F040E02091E8002E77DF
:104BD0002093E800CECF41914093F10001972F5FE1
:104BE0003F4FE9CF80910903882341F0853041F0A0
:104BF0008091E80083FFC1CF81E0089582E00895AD
:104C000083E00895FC01CB01209110033091110342
:104C10002617370790F0009729F42091E8002E77A7
:104C20002093E80040E0009751F4411108C08091C2
:104C3000E80082FF32C080E00895C901F3CF2091DF
:104C400009032223B1F12530B1F12091E80023FDC1
:104C50002EC02091E80022FDEACF2091E80020FF3D
:104C6000E2CF3091F3002091F200009719F0283044
:104C7000310558F041E02830310509F040E020913D
:104C8000E8002E772093E800CECF44914093F100C6
:104C9000319601972F5F3F4FE8CF8091090388231A
:104CA00041F0853041F08091E80083FFC0CF81E082
:104CB000089582E0089583E00895982F973028F0B2
:104CC0008F708093E90081E008959093E900242F8C
:104CD000762F50E0981731F07091EC002091ED00A4
:104CE0005091F00021FD02C09F5FE8CF3091EB00B2
:104CF0003E7F3093EB003091ED003D7F3093ED002F
:104D00003091EB0031603093EB007093EC00209316
:104D1000ED005093F0002091EE0027FDE5CF80E0FC
:104D2000089580910A0387FF13C08091E80082FFF5
:104D300006C08091E8008B778093E80004C08091E2
:104D400009038111F2CF0895809109038823D9F3D3
:104D50008091E80080FFF8CF8091E8008E77ECCF5B
:104D60002091E4003091E50095E6A9012091EC0046
:104D7000822F817020FF06C08091E80080FF06C06E
:104D800080E008952091E80022FD1AC08091090377
:104D9000882389F0853089F08091EB0085FD0FC074
:104DA0002091E4003091E50042175307F9F2915049
:104DB000E1F684E0089582E0089583E0089581E0BB
:104DC000089567D06ED0E0EEF0E08081816080834E
:104DD000E8EDF0E080818F77808319BCA7EDB0E02B
:104DE0008C918E7F8C9380818F7E808310920803BC
:104DF00008950F931F93CF93DF934BD052D0C8EDFC
:104E0000D0E088818F7788838881806888838881D3
:104E10008F7D888319BC10920903109205031092AC
:104E200007031092060300EE10E0F80180818B7FEB
:104E3000808388818160888342E060E080E03DDF9C
:104E4000E1EEF0E080818E7F8083E2EEF0E0808111
:104E500081608083808188608083F80180818E7F7B
:104E60008083888180618883DF91CF911F910F912A
:104E70000895E8EDF0E080818F7E8083E7EDF0E03B
:104E800080818160808384E082BF81E08093080319
:104E9000B0CFE8EDF0E080818E7F80831092E20059
:104EA00008951092DA001092E10008951F920F9277
:104EB0000FB60F9211242F933F934F935F936F93ED
:104EC0007F938F939F93AF93BF93EF93FF938091C3
:104ED000E10082FF0AC08091E20082FF06C080915B
:104EE000E1008B7F8093E1002CD28091DA0080FF7B
:104EF00018C08091D80080FF14C08091DA008E7FA6
:104F00008093DA008091D90080FF8FC080E189BD55
:104F100082E189BD09B400FEFDCF81E080930903E1
:104F2000E3DB8091E10080FF18C08091E20080FF08
:104F300014C08091E2008E7F8093E2008091E200B5
:104F400080618093E2008091D80080628093D800D5
:104F500019BC85E080930903D9DB8091E10084FFCF
:104F600028C08091E20084FF24C080E189BD82E1F5
:104F700089BD09B400FEFDCF8091D8008F7D80935C
:104F8000D8008091E1008F7E8093E1008091E20063
:104F90008F7E8093E2008091E20081608093E20046
:104FA00080910503882309F445C084E080930903B8
:104FB000B4DB8091E10083FF27C08091E20083FF92
:104FC00023C08091E100877F8093E10082E080939D
:104FD0000903109205038091E1008E7F8093E10028
:104FE0008091E2008E7F8093E2008091E2008061F8
:104FF0008093E20042E060E080E05FDE8091F000BC
:1050000088608093F0007FDBFF91EF91BF91AF91BB
:105010009F918F917F916F915F914F913F912F91D0
:105020000F900FBE0F901F90189519BC1092090396
:1050300067DB77CF8091E30087FD02C081E0B6CFC8
:1050400083E0B4CF1F920F920FB60F9211242F93CB
:105050003F934F935F936F937F938F939F93AF9300
:10506000BF93CF93DF93EF93FF93D091E900DF706D
:105070008091EC00C82FC17080FDC0E81092E9005B
:105080008091F000877F8093F00078941ED010927A
:10509000E9008091F00088608093F000CD2BCF7004
:1050A000C093E900FF91EF91DF91CF91BF91AF9154
:1050B0009F918F917F916F915F914F913F912F9130
:1050C0000F900FBE0F901F901895AAE2B0E0EAE68D
:1050D000F8E292C18AE093E0FC0101962091F10090
:1050E000208323E082319207B9F739DB8091E80011
:1050F00083FF16C180910A0390910B039A3008F048
:105100000FC1E92FF0E0EE51F54D5AC1803899F00A
:10511000823809F005C180910E038F70873008F046
:10512000FFC08093E9008091EB0085FB882780F920
:105130001092E90006C08091060390910703911137
:1051400082609091E800977F9093E8008093F1004F
:105150001092F1008091E8008E77DFC0882309F477
:10516000CDC0823009F0DCC080910C038111D0C029
:1051700080910E038F702FEF280F263008F0D0C0DB
:105180008093E9002091EB0020FFC2C0933031F4FE
:105190008091EB0080628093EB00BAC09091EB00AD
:1051A00090619093EB0021E030E001C0220F8A95DE
:1051B000EAF72093EA001092EA008091EB00886001
:1051C000EACF8111ADC010910C031F778091E300ED
:1051D0008078812B8093E3008091E800877F809323
:1051E000E8009FDD8091E80080FFFCCF8091E30024
:1051F00080688093E30082E0111183E080930903CB
:105200008FC08058823008F08BC080910C03909141
:105210000D038C3D23E0920799F583E08A838AE2AF
:1052200089834FB7F894DE01139620E03EE051E207
:10523000E32FF0E050935700E49120FF03C0E29584
:10524000EF703F5FEF708E2F90E0EA30B8F0C796B6
:105250008D939D932F5F243159F74FBF8091E800C4
:10526000877F8093E8006AE270E0CE01019670DCEF
:105270008091E8008B778093E80052C0C096E8CF19
:1052800060910E0370910F03AE014F5F5F4F51DBD2
:10529000BC01892B09F444C08091E800877F80938A
:1052A000E80089819A81AEDCE3CF8038C9F580912E
:1052B000E800877F8093E800809105038093F100E8
:1052C00049CF81112DC090910C03923048F5809107
:1052D000E800877F8093E8009093050322DD8091AA
:1052E0000503882311F084E005C08091E30087FD69
:1052F000FACF81E08093090319DA12C080910C0380
:10530000813071F481E0933009F080E080930703ED
:105310001092E9008091E800877F8093E80001DD2A
:105320008091E80083FF0AC08091E800877F809326
:10533000E8008091EB0080628093EB00AA96E3E0A6
:1053400077C00895CF9380910903882399F0C09185
:10535000E900CF709091EC00892F817090FD80E87A
:10536000C82B1092E9008091E80083FDAEDECF707B
:10537000C093E900CF91089524DD109209030895A8
:10538000E8EDF0E08081806180838AE18A95F1F721
:1053900000C08091D9008170089597FB072E16F404
:1053A000009406D077FD08D04FD007FC05D03EF41E
:1053B000909581959F4F0895709561957F4F0895C1
:1053C000EE0FFF1F0590F491E02D099469279627B1
:1053D000692778278727782708952F923F924F9241
:1053E0005F926F927F928F929F92AF92BF92CF9275
:1053F000DF92EF92FF920F931F93CF93DF93CDB77E
:10540000DEB7CA1BDB0B0FB6F894DEBF0FBECDBFF5
:1054100009942A88398848885F846E847D848C84C6
:105420009B84AA84B984C884DF80EE80FD800C81CF
:105430001B81AA81B981CE0FD11D0FB6F894DEBFB2
:105440000FBECDBFED010895AA1BBB1B51E107C0E4
:10545000AA1FBB1FA617B70710F0A61BB70B881F04
:10546000991F5A95A9F780959095BC01CD01089593
:10547000FB01DC0104C08D910190801921F44150A1
:105480005040C8F7881B990B0895FB01DC0102C04E
:1054900001900D9241505040D8F70895F999FECFF0
:1054A00092BD81BDF89A992780B50895A8E1B0E032
:1054B00042E050E02FC0DC01A40FB51F4150504026
:1054C00040F0CB01840F951F2E9105D041505040E4
:1054D000D8F70895262FF999FECF92BD81BDF89A8D
:1054E000019700B4021639F01FBA20BD0FB6F89428
:1054F000FA9AF99A0FBE08950396272FECDFEADF98
:10550000252FE9DF242FE7CF0196272FE4DFE2CF15
:10551000DC01CB01FC01F999FECF06C0F2BDE1BD73
:10552000F89A319600B40D9241505040B8F7089562
:10553000F894FFCFA104A104D904D90432054E0583
:10554000C904C9045205B305BF05BF050417761782
:105550000C17D616DA161017DE1614172017EA16CF
:105560006F17EE162417F21628175017F6162C1779
:105570005717FC1632173A17E2161817E6161C17BB
:1055800000173617461760176D17D01608177D17C6
:10559000881B8E1B791B821B941B9A1BA01B701CE3
:1055A0007E1CC41CE01CF41C081D0B1D0B1D0B1DD8
:1055B000891C891C101D161D221D311D441D471DEF
:1055C0004A1D5D1D8628AE289029AE289029E12825
:0855D0000129902955296129E8
:1055D80061028102F4F5F6F73133323534C6976645
:1055E80001000000010000000000000005010000AB
:1055F800000406000000000000280850011E0A14DC
:1056080001030201000001001C2032232D2328235E
:1056180023231A23E200E900EA00B500B600B70028
:10562800CD008301CC008A0192019401210223025A
:1056380024022502260227022A02B300B4006F00C2
:1056480070009F01CB019F02A002E200E900EA007E
:10565800B500B600B700CD008301CC008A019201E5
:1056680094012102230224022502260227022A028B
:10567800B300B4006F0070009F01CB019F02A0022D
:1056880034C697669400F6F7313332F5F400A90270
:105698004422B603042B034D03D002E90209030098
:00000001FF
